:020000040000FA
:040000004EEF09F0C6
:101000000025336400009294898487EC09F087EC12
:1010100009F087EC09F0979C8E9C87EC09F08E8C88
:1010200072EC09F0000EBEEC08F0000E9CEC08F02B
:10103000000E7AEC08F087EC09F03C0E34EC09F075
:1010400087EC09F00C0E34EC09F087EC09F0010E86
:1010500034EC09F087EC09F0060E34EC09F01200CC
:1010600020EE3AF010EE18F0100EDBCFE3FFE806AA
:10107000FCE220EE29F010EE07F0100EDBCFE3FFCC
:10108000E806FCE203EC08F083EC09F0180E036EAE
:10109000000E046EE0EC08F07FEC09F0180E036E11
:1010A000000E046EE0EC08F044EF08F000EF00F0F2
:1010B000016E8994400EC96E9EA661EF08F063EF41
:1010C00008F05CEF08F09E96130EC96E9EA66BEFBB
:1010D00008F06DEF08F066EF08F09E9601C0C9FFBA
:1010E0009EA675EF08F077EF08F070EF08F09E9677
:1010F00089841200016E8994400EC96E9EA683EF0A
:1011000008F085EF08F07EEF08F09E96120EC96E8B
:101110009EA68DEF08F08FEF08F088EF08F09E96FE
:1011200001C0C9FF9EA697EF08F099EF08F092EF73
:1011300008F09E9689841200016E8994400EC96E53
:101140009EA6A5EF08F0A7EF08F0A0EF08F09E9686
:10115000010EC96E9EA6AFEF08F0B1EF08F0AAEF3E
:1011600008F09E9601C0C9FF9EA6B9EF08F0BBEF3C
:1011700008F0B4EF08F09E9689841200016E8994FD
:10118000400EC96E9EA6C7EF08F0C9EF08F0C2EF87
:1011900008F09E96000EC96E9EA6D1EF08F0D3EF20
:1011A00008F0CCEF08F09E9601C0C9FF9EA6DBEFC9
:1011B00008F0DDEF08F0D6EF08F09E968984120063
:1011C000000E066E000E056EF1EF08F005500324C8
:1011D000D96E06500420DA6EDF5000EC09F0054AA3
:1011E000062A05500324D96E06500420DA6EDF501B
:1011F000D8A4FDEF08F0FFEF08F0E6EF08F01200CA
:10120000026E800E7AEC08F07AEC09F0025058EC8D
:1012100008F000F000F000F000F0C00E7AEC08F0EA
:1012200000F000F000F000F000F000F0000E7AECAA
:1012300008F01200026E000E7AEC08F07AEC09F069
:10124000025058EC08F000F000F000F000F0400E02
:101250007AEC08F000F000F000F000F000F000F090
:10126000000E7AEC08F01200026E000E7AEC08F024
:10127000025058EC08F000F000F000F0400E7AEC5C
:1012800008F000F000F000F000F000F000F000F0D6
:1012900000F000F0000E7AEC08F01200C20EF66EBC
:1012A000120EF76E000EF86E00EE29F010EE22F02E
:1012B0000900F5CFEEFFE550E150FAE1000130EF13
:1012C00008F0486F772061726520796F7500000023
:1012D00000000048656C6C6F20576F726C640000F2
:1012E000000000009496949A220EC66EC78CC79E8A
:1012F0009E9612008BEC09F08BEC09F01200C00EE8
:101300001AEC09F01200800E1AEC09F0120000F03D
:0813100000F000F012001200D1
:020000040020DA
:08000000FFFFFFFFFFFFFFFF00
:020000040030CA
:0E000000FF071F1EF38385FFFFC0FFE0FF40D8
:00000001FF
